:100000000C9446000C9465000C9465000C946500FB
:100010000C9465000C9465000C9465000C946500CC
:100020000C9465000C9465000C9465000C946500BC
:100030000C9465000C9465000C9465000C946500AC
:100040000C9465000C9465000C9465000C9465009C
:100050000C9465000C9465000C9465000C9465008C
:100060000C9465000C9465000C9465000C9465007C
:100070000C9465000C9465000C9465000C9465006C
:100080000C9465000C9465000C94650011241FBE4F
:10009000CFEFD0E4DEBFCDBF11E0A0E0B1E0E6E0FD
:1000A000F7E000E00BBF02C007900D92AE30B10741
:1000B000D9F721E0AEE0B1E001C01D92A231B20754
:1000C000E1F70E94C6010C9481030C940000CF93C9
:1000D000DF9300D01F92CDB7DEB789837B836A831D
:1000E00089818A3031F48A819B81BC018DE00E9434
:1000F000670080EC90E0FC018081882F90E08072A6
:100100009927892BB1F386EC90E02981FC012083AB
:1001100080E090E00F900F900F90DF91CF910895C5
:10012000CF93DF93CDB7DEB780911001909111018D
:100130008230910551F18330910528F4009751F0F8
:10014000019779F068C083309105B9F1049709F4FB
:100150004CC061C081E090E0909311018093100148
:1001600064C080910E01882349F082E090E0909372
:1001700011018093100110920F0157C081E090E0AF
:10018000909311018093100150C080910E0188233B
:1001900049F083E090E09093110180931001109258
:1001A0000F013EC080910E018823D1F582E090E0DE
:1001B000909311018093100133C080910E01882328
:1001C00049F084E090E09093110180931001109227
:1001D0000F0128C080910E01882321F583E090E073
:1001E00090931101809310011DC080910E0188230E
:1001F00039F081E090E0909311018093100114C0D8
:1002000080910E01882381F484E090E090931101A5
:100210008093100109C0109211011092100105C0C5
:10022000000003C0000001C0000080911001909107
:10023000110182309105C9F08330910528F40097AF
:1002400051F0019769F099C08330910549F1049705
:1002500009F441C092C088E290E0FC01108292C093
:1002600088E290E0FC0110828DC080910F01833004
:1002700011F410920F0188E290E020910F01422FBB
:1002800050E029E030E002C0220F331F4A95E2F728
:10029000FC01208380910F018F5F80930F0172C05A
:1002A00080910F01882359F488E290E02AE2FC0152
:1002B000208380910F018F5F80930F0163C088E2DC
:1002C00090E028E230E0F90120812695FC012083AE
:1002D00010920F0157C080910F01882359F488E2D2
:1002E00090E021E2FC01208380910F018F5F8093D9
:1002F0000F0148C080910F01813059F488E290E0ED
:1003000023E3FC01208380910F018F5F80930F0115
:1003100039C080910F01823059F488E290E02FE3D8
:10032000FC01208380910F018F5F80930F012AC011
:1003300080910F01833059F488E290E02EE1FC01B6
:10034000208380910F018F5F80930F011BC08091EC
:100350000F01843059F488E290E02CE0FC01208306
:1003600080910F018F5F80930F010CC088E290E0B5
:10037000FC01108210920F0105C088E290E0FC01A0
:10038000108200000000DF91CF910895CF93DF939A
:10039000CDB7DEB72E970FB6F894DEBF0FBECDBF38
:1003A00081E290E0FC01108282E290E02FEFFC01FC
:1003B000208387E290E02FEFFC01208388E290E029
:1003C000FC01108280E290E0FC018081882F90E0A7
:1003D0008170992721E0892B09F020E0822F8093FA
:1003E0000E010E94900080E090E0AAE7B5E48983C6
:1003F0009A83AB83BC8320E030E04AEF54E4698108
:100400007A818B819C810E94EC02DC01CB018D837F
:100410009E83AF83B88720E030E040E85FE36D81E2
:100420007E818F8198850E94660288232CF481E06A
:1004300090E09A8789873FC020E03FEF4FE757E47D
:100440006D817E818F8198850E94E70218164CF598
:1004500020E030E040E251E469817A818B819C8127
:100460000E94EC02DC01CB01BC01CD010E946B02B9
:10047000DC01CB019A8789870FC088EC90E09C87CC
:100480008B878B859C850197F1F79C878B87898566
:100490009A8501979A87898789859A85892B69F733
:1004A00014C06D817E818F8198850E946B02DC0172
:1004B000CB019A87898789859A859E878D878D85C7
:1004C0009E850197F1F79E878D877CCF0E949A02C7
:1004D00008F481E008950E94C60288F09F5798F0C2
:1004E000B92F9927B751B0F0E1F0660F771F881F39
:1004F000991F1AF0BA95C9F714C0B13091F00E9453
:10050000E002B1E008950C94E002672F782F88276D
:10051000B85F39F0B93FCCF3869577956795B39579
:10052000D9F73EF490958095709561957F4F8F4FE8
:100530009F4F0895990F0008550FAA0BE0E8FEEFB2
:1005400016161706E807F907C0F012161306E40797
:10055000F50798F0621B730B840B950B39F40A2690
:1005600061F0232B242B252B21F408950A2609F46E
:10057000A140A6958FEF811D811D089557FD9058CC
:10058000440F551F59F05F3F71F04795880F97FB57
:10059000991F61F09F3F79F0879508951216130611
:1005A0001406551FF2CF4695F1DF08C01616170640
:1005B0001806991FF1CF8695710561050894089575
:1005C000E894BB2766277727CB0197F908950E9407
:1005D0009A0208F48FEF08950E94FF020C947003B2
:1005E0000E94620338F00E94690320F0952311F005
:1005F0000C9459030C945F0311240C94E1020E94A3
:10060000BE0270F3959FC1F3950F50E0551F629F96
:10061000F001729FBB27F00DB11D639FAA27F00D5B
:10062000B11DAA1F649F6627B00DA11D661F829F82
:100630002227B00DA11D621F739FB00DA11D621F67
:10064000839FA00D611D221F749F3327A00D611D84
:10065000231F849F600D211D822F762F6A2F112466
:100660009F5750409AF0F1F088234AF0EE0FFF1F99
:10067000BB1F661F771F881F91505040A9F79E3FF0
:10068000510580F00C9459030C94E1025F3FE4F3B0
:10069000983ED4F3869577956795B795F795E79546
:1006A0009F5FC1F7FE2B880F911D9695879597F94F
:1006B000089597F99F6780E870E060E008959FEFE4
:1006C00080EC089500240A941616170618060906E9
:1006D000089500240A9412161306140605060895B8
:1006E000092E0394000C11F4882352F0BB0F40F440
:1006F000BF2B11F460FF04C06F5F7F4F8F4F9F4F80
:060700000895F894FFCFFC
:0E07060000000002000000006700000000007C
:00000001FF
