:100000000C9446000C9465000C9465000C946500FB
:100010000C9465000C9465000C9465000C946500CC
:100020000C9465000C9465000C9465000C946500BC
:100030000C9465000C9465000C9465000C946500AC
:100040000C9465000C9465000C9465000C9465009C
:100050000C9465000C9465000C9465000C9465008C
:100060000C9465000C9465000C9465000C9465007C
:100070000C9465000C9465000C9465000C9465006C
:100080000C9465000C9465000C94650011241FBE4F
:10009000CFEFD0E4DEBFCDBF11E0A0E0B1E0E0E9FA
:1000A000F3E000E00BBF02C007900D92AE30B10745
:1000B000D9F721E0AEE0B1E001C01D92A131B20755
:1000C000E1F70E94A4010C94C6010C940000CF93A8
:1000D000DF9300D01F92CDB7DEB789837B836A831D
:1000E00089818A3031F48A819B81BC018DE00E9434
:1000F000670080EC90E0FC018081882F90E08072A6
:100100009927892BB1F386EC90E02981FC012083AB
:1001100080E090E00F900F900F90DF91CF910895C5
:10012000CF93DF93CDB7DEB780910F01909110018F
:100130008230910509F470C08330910528F400974E
:1001400059F00197A9F0C8C08330910509F489C01E
:10015000049709F4ABC0C0C081E090E09093100117
:1001600080930F0188E290E027E0FC012083BAC071
:1001700080910E01882F90E081709927892BB9F02A
:1001800082E090E09093100180930F0188E290E06C
:10019000FC018081893008F0A4C088E290E028E268
:1001A00030E0F90120812F5FFC0120839AC080910B
:1001B0000E01882F90E082709927892BB9F083E097
:1001C00090E09093100180930F0188E290E0FC0191
:1001D0008081882309F485C088E290E028E230E03D
:1001E000F90120812150FC0120837BC080910E0108
:1001F000882F90E083709927892B39F084E090E074
:100200009093100180930F016CC081E090E0909377
:10021000100180930F0165C080910E01882F90E03E
:1002200081709927892B39F481E090E09093100137
:1002300080930F0157C080910E01882F90E082704B
:100240009927892B39F084E090E0909310018093F6
:100250000F0148C082E090E09093100180930F015D
:1002600041C080910E01882F90E082709927892BE0
:1002700039F481E090E09093100180930F0132C037
:1002800080910E01882F90E081709927892B39F099
:1002900084E090E09093100180930F0123C083E0ED
:1002A00090E09093100180930F011CC080910E018B
:1002B000882F90E083709927892B39F481E090E0B2
:1002C0009093100180930F010DC084E090E0909313
:1002D000100180930F0106C01092100110920F01BF
:1002E00001C0000080910F019091100182309105B2
:1002F00011F18330910528F40097F9F0019739F056
:1003000014C083309105D9F0049751F00EC088E2F3
:1003100090E028E230E0F9012081FC01208310C048
:1003200088E290E0FC0110820BC088E290E027E0B8
:10033000FC01208305C0000003C0000001C00000D4
:100340000000DF91CF910895CF93DF93CDB7DEB753
:1003500081E290E0FC01108282E290E02FEFFC014C
:10036000208387E290E02FEFFC01208388E290E079
:10037000FC01108210920E0180E290E0FC0180816D
:10038000809580930E010E949000F6CFF894FFCFE5
:0E0390000000000200000000670000000000F6
:00000001FF
